:020000041000EA
:1000000000B5324B212058609868022188439860DF
:10001000D860186158612E4B002199600221596106
:100020000121F02299502B49196001219960352056
:1000300000F044F80222904214D00621196600F024
:1000400034F8196E01211966002018661A6600F04E
:100050002CF8196E196E196E052000F02FF8012189
:100060000842F9D1002199601B49196000215960AB
:100070001A491B48016001219960EB211966A021F2
:10008000196600F012F800219960164914480160C1
:100090000121996001BC002800D000471248134993
:1000A000086003C880F30888084703B5996A0420EC
:1000B0000142FBD001200142F8D103BD02B5186610
:1000C0001866FFF7F2FF186E186E02BD00000240BE
:1000D000000000180000070000035F00212200005C
:1000E000F4000018222000A00001001008ED00E03C
:1000F00000000000000000000000000074B24E7A12
:1001000000200420F7010010C3010010C5010010F9
:10011000C1010010C1010010C1010010C101001097
:10012000C1010010C1010010C1010010C701001081
:10013000C1010010C1010010C9010010CB01001065
:10014000CD010010CD010010CD010010CD01001037
:10015000CD010010CD010010CD010010CD01001027
:10016000CD010010CD010010CD010010CD01001017
:10017000CD010010CD010010CD010010CD01001007
:10018000CD010010CD010010CD010010CD010010F7
:10019000CD010010CD010010CD010010CD010010E7
:1001A000CD010010CD010010CD010010CD010010D7
:1001B000CD010010CD010010CD010010CD010010C7
:1001C00000BE00BE00BE00BE00BE00BEEFF3058054
:1001D000103800BEF2EB8871C0BC0010E0BC00100B
:1001E0003402001090A31AE700201F49086006C8D7
:1001F00081F3088810471D48006800282FD10DA4FE
:100200000ECC002902D000F012F8F9E71849194A7B
:10021000002000E001C19142FCD1174988471749ED
:1002200088471749884700BEFDE701C901C29A42C5
:10023000FBD37047E0BC0010C0000020801B0020F2
:10024000A0D700100000042000000420A0D7001058
:10025000001004200010042000000000704709482E
:1002600002F0ACF90047000008ED00E0000000D00B
:10027000801B00204C2A002001240010E503001000
:10028000292500105756000006005250ABB36053AA
:1002900074AE001006005250861C030284AE00109B
:1002A000060052505422A29D90AE001005005250FC
:1002B000DE65F468A0D70010F8B5C0460448054BC9
:1002C00010B5834203D0044B002B00D0984710BDDB
:1002D000801B0020801B002000000000064807490A
:1002E000091A8B10C90FC91810B5491003D0044B57
:1002F000002B00D0984710BD801B0020801B0020E1
:100300000000000010B5074C2378002B09D1FFF73F
:10031000D5FF054B002B02D0044800E000BF0123AD
:10032000237010BD881E002000000000C0AD00102A
:10033000054B10B5002B03D00449054800E000BF71
:10034000FFF7CCFF10BDC046000000008C1E00204F
:10035000C0AD001010B5064C20000AF0D1FC00F032
:100360000DF900F0A3F920000AF0FAFCF4E7C0460A
:10037000501B002070B59AB0164901A806F052F93A
:10038000154D01A8290006F083FF2900002006F082
:100390007FFF0624060029000020013C06F078FFBC
:1003A000002CF8D12900002006F072FF0B4905004F
:1003B000300006F06DFF0400094E30000AF0A0FC8A
:1003C0002900200000F018FA30000AF0C9FC1AB029
:1003D00070BDC0460C290020C0AD0010C4AD001097
:1003E000501B0020F0B5C646D02400B502F068FED0
:1003F000022501262406280000F08AFA3300AB40CB
:100400000135636263610C2DF5D10C2000F080FA98
:1004100080235B0163620D2000F07AFA80239B0148
:1004200063620E2000F074FA8023DB0163620F2008
:1004300000F06EFA80231B0263621A2000F068FA53
:100440001B2000F065FA8023DB04636280231B0518
:1004500063620221002000F043FA0221012000F033
:100460003FFA96211A48890101F0E0FC194805F08D
:1004700003F8194B194F98463A68194E144C043535
:10048000A3691D42FCD1A3691D42FCD12368DBB2E4
:10049000242BF5D10132701EA3691D42FCD12368C3
:1004A0001100DBB2835401320A2BF5D13960B378E5
:1004B000522B05D13100404606F0B4F8FFF75AFF41
:1004C00064220021300002F0E5FB0022D8E7C0469C
:1004D00000400340550300100C290020002A002092
:1004E0009C290020F0B54F464646D646C0B51F4B66
:1004F000D0251B5C2D0699461D4B00269A46524678
:100500000123526801249340AB611A4B1A4F98465D
:100510005B6818E06B610120002101F09BF823006B
:100520007A680021934001206B6101F093F8434603
:1005300022005B6879689A40AA6122008A400136ED
:10054000AA61082E08D022009A4013004A46324180
:100550001442DFD1AB61DEE753465B689C406C61BF
:10056000E0BCBA46B146A846F0BDC04640100020E7
:100570004C100020541000205C100020F0B55746AD
:100580004546DE464E46E0B5414B83B00193414BB4
:10059000D0259A46404B01249B46404B404F9846FD
:1005A0002D06404A019B94461B785A466344303BD3
:1005B0001B781268994623009340AB61434600269E
:1005C0001B6818E06B610120002101F043F8230053
:1005D0003A680021934001206B6101F03BF84346EB
:1005E00022001B6839689A40AA6122008A400136BD
:1005F000AA61082E08D022009A4013004A463241D0
:100600001442DFD1AB61DEE75A4623001268C820EE
:10061000934052466B612300126800219340AB6106
:1006200001F018F842462300126893405A46AB6125
:10063000230012689340AB613B6822009A4001207E
:100640006A61002101F006F822003B68013E9A40F1
:10065000AA61002EF1D15A4623001268C8209340A7
:1006600052466B6108CA0021924622009A4040001F
:100670006A6100F0EFFF019B013301930A4B534580
:100680008FD103B0F0BCBB46B246A946A046F0BD30
:10069000242A0020281000204C1000205410002094
:1006A0005C1000204010002040100020F0B557469C
:1006B0004E464546DE46E0B5494B83B00193494B73
:1006C000D02599469846484B01269B46474B484FB4
:1006D0009A462D06019B082418783038FFF702FF50
:1006E000424633001268962093400021AB614000DF
:1006F00000F0B0FF5A463300526893405246AB6157
:10070000330052689340AB617B6832009A4001200D
:100710006A61002100F09EFF32007B68013C9A4034
:10072000AA61002CF1D1524633005268C820934090
:1007300042466B6108CA0021904632009A40400050
:100740006A6100F087FF019B01330193294B9845B3
:10075000C0D10823D0254B44984601262D060A20F7
:10076000FFF7C0FE4A4633009268C820934000213C
:10077000AB6100F06FFF5A46330052680824934083
:100780005246AB61330052689340AB617B683200E4
:100790009A4001206A61002100F05CFF32007B6812
:1007A000013C9A40AA61002CF1D1524633005268B4
:1007B000C82093404A466B61330092680021934001
:1007C00040006B6100F046FF04239C46E144C145B4
:1007D000C5D103B0F0BCBB46B246A946A046F0BDA9
:1007E0008C24002018100020541000204C100020F1
:1007F0005C10002028100020F0B5CE4647460300CC
:1008000080B597B01A7801A802705A789C78427027
:10081000002202AE3470DC7803AD74701C795B7911
:1008200004AF6B700B782C703B704B7805AC7B7011
:100830008B78B2702370CB78AA70A27082706370CC
:10084000BA7004F03FFE8046300004F03BFE814663
:10085000280004F037FE0600380004F033FE0500DF
:10086000200004F02FFE194B01381B6811904344FF
:100870000F934B460E93B1239B00129301230DA8B7
:100880005B4215930D96109505F012FB0A900B91A3
:100890000AA804F023FE0400030007210C4A08A85C
:1008A00006F0C0FC23000B4A072106A806F0BAFC9C
:1008B00008A9094805F0B6FE06A9084805F0B2FEE9
:1008C00017B0C0BCB946B046F0BDC04664100020A9
:1008D000C8AD0010D0AD0010242A00208C240020C8
:1008E000094A830094464022634410B51C68C00046
:1008F0006240C02414408022520113431C60034B09
:100900009C466044416010BD04C00140004001406D
:100910000123D0228340120693629361094A830027
:100920009446402263441968C0004A40C0211140E7
:100930008022520113431960034B9C4605236044F7
:100940004360704704C0014000400140024B1868FA
:100950008007C00F7047C04600C0064070B5EFF377
:10096000108C72B60D4D2B68002BFCD0BFF35F8F3F
:100970000724CB08C618C05C01230C40A3401C0010
:100980000440034207D103433370BFF35F8F2C60F1
:100990008CF3108870BD100001F0CAFD2C0100D04E
:1009A000F8B54746CE46884680B5EFF3108C72B650
:1009B000214D2C68002CFCD0BFF35F8F9A422CD8BD
:1009C000D4080727055D061901241740BC402C42B6
:1009D0001FD007210127894609E0D408055D0619C3
:1009E0004C4639001440A1400C00294211D001327C
:1009F0009342F2D201204042BFF35F8F00220E4BA0
:100A00001A608CF3108800280FDBC0BCB946B046D2
:100A1000F8BD2C4310003470EEE7BFF35F8F002366
:100A20002B608CF31088012040424346002BECD011
:100A3000089801F07DFDC0462C0100D00021044B38
:100A4000044ABFF35F8F02C39342FAD17047C04696
:100A5000000100D0800100D0044A1078431CDBB2B2
:100A6000172B00D9102313707047C0466810002060
:100A700000B5054B83B00100009318221F230348E3
:100A8000FFF78EFF03B000BDD8AD0010602400203A
:100A900001238340002904D0034A1360034A1360F2
:100AA0007047034A1360FBE780E200E000E100E0EA
:100AB00080E100E001228240034B1B6813405A1E74
:100AC0009341D8B27047C04600E100E00123834063
:100AD000014A13607047C04600E200E0084B103046
:100AE0009B688000C358002B07D0064A00209B1A41
:100AF0002F229A424041C0B270470020FCE7C04616
:100B000000ED00E06C100020024B10309B6880006C
:100B1000C058704700ED00E070B50D00EFF310868F
:100B200072B60F4A1368002BFCD0BFF35F8F0D4BDA
:100B300010309B6884001B590B4A934203D09D429E
:100B400001D001F00DFD074B9B681D51BFF35F8F76
:100B5000BFF35F8F0022024B1A6086F3108870BDCE
:100B6000240100D000ED00E0CD010010F0B55746A3
:100B70004E46DE464546E0B585B0060002911700B8
:100B8000EFF3108B72B6674A1368002BFCD0BFF3EB
:100B90005F8F0025644B5D579A46002D00DAA4E074
:100BA0006B00624C03935B199B009846A146C144BD
:100BB0004B4652469B79103613705D4BB2009B68D2
:100BC000019299580B1B2F2B34D95A4B994200D0C4
:100BD000A4E0039B584A9C46584B6544AD006353C0
:100BE000434602336519E418554B0121043B1B1B96
:100BF0001B055B0D13436B80524BEF71AB80FF23E2
:100C0000AB71029BAB604B460B431900484B019AFA
:100C10009B689950BFF35F8FBFF35F8F0022414BFA
:100C20001A608BF3108805B0F0BCBB46B246A946EB
:100C3000A046F0BD01200A008243D379BB422FD8E1
:100C400045464E46130040491B1B5B415943090D65
:100C50003A4B63533A4B02356519043B5B1B1B054A
:100C6000354D5B0D2B4373800426B446E044444469
:100C7000131F1B1B4C46A17102991B05A16049461D
:100C80005B0D2B43A380314BE77101431360BDE73C
:100C90005800C01880002018C679BE422BD9020027
:100CA0000623D356002BF3DA101D824628488046CF
:100CB00004267642B446E14450464E46361A300584
:100CC000400D824656461C48957106439680039A0D
:100CD000944665441D4AAD00641922604246A371E2
:100CE000029BA280E771A36090E701F039FC002528
:100CF00053465D5754E7101D824690884005001505
:100D000084464046D444664604302018301AE02613
:100D10000005400D360230438046C9E701F020FC53
:100D200057E7C046240100D0452A00206C1000205F
:100D300000ED00E0CD01001000E0FFFF00A1FFFF8B
:100D40009C10002001BDFFFFAAAA000001488047B7
:100D500001BD0000F0B5DE4657464E464546E0B5BB
:100D60000C0083B0EFF3108972B6584A1368002B59
:100D7000FCD0BFF35F8F564B9A68030010339F007F
:100D8000D559544A9046954232D0A54243D0524E4E
:100D9000AA1B2F2A2CD801228240924651464F4A44
:100DA00012681140019151464D4A1160BFF35F8FA7
:100DB000EFF305829346002A33D101232A009A4398
:100DC00093689C4208D177E04B005B189B00F318B6
:100DD0009968A1422AD01A00062151560029F3DA57
:100DE000019B002B19D052463E4B1A603B4B1A60B8
:100DF000374B9B68DD51BFF35F8FBFF35F8F0022DE
:100E0000324B1A6089F3108803B0F0BCBB46B2467F
:100E1000A946A046F0BD1500EAE75246304B1A60DD
:100E2000E6E79342C9D001F09BFBC6E7062159567D
:100E3000002921DB4A005018800034188046A06841
:100E40009860E079D871062020569871002824DB3C
:100E5000A488F01A6405241544440019E024000510
:100E6000400D24022043988052181F4B9200B61860
:100E70001A781970B271B3E7594600290FD1FF31C2
:100E800091711A49918018490A789A71184A9B1BE6
:100E90005B415A43120D0A70A2E71648E3E7164A6F
:100EA0001649D21A083A5002400D0143998014495C
:100EB00052080A43DA8093E70621515613000029AD
:100EC000B8DA5A46002AEAD14546DCE7240100D0C8
:100ED00000ED00E0CD0100106C10002000E100E00A
:100EE00080E100E080E200E0452A002001BDFFFF34
:100EF000AAAA000001BD0000A610002000F0FFFF1C
:100F000000F8FFFF70B5EFF3058101240443EFF310
:100F1000108C72B6214A1368002BFCD0BFF35F8F90
:100F20001F4B05001F4AED1A6D416A43120D1E4DFD
:100F30008900AE6852B27658A6421CD00621595696
:100F400091421CD012215956914222D01E2159564D
:100F5000914220D02A2159560324914210D0134B9C
:100F600019781A708171BFF35F8F00220B4B1A60E2
:100F70008CF3108870BDAB680D4C5C50EFE700241B
:100F80006100091989005B18FF219971094999804D
:100F9000E5E70124F4E70224F2E7C046240100D08B
:100FA0006C100020AAAA000000ED00E0452A0020F5
:100FB000CD01001001BDFFFF054B064A1360064A34
:100FC000136053609360D360136153619361704702
:100FD0008080808000E400E004E400E000B5074B7E
:100FE00083B001000093002205230548FFF7D8FCD9
:100FF000002801DB1F23181A03B000BDF4AD001058
:101000004A2A0020024B9C466144890001607047D7
:101010004000003410B50400FFF71EFD0100200061
:10102000FFF7F0FFFF232371BFF35F8F10BDC046B2
:1010300010B50400FFF710FD01002000FFF7E2FFEC
:10104000FF23A380BFF35F8F10BDC04610B504001F
:101050000120FFF70DFD044B9C466044800020609A
:10106000BFF35F8F10BDC04640000034034B9C4669
:10107000614489000160BFF35F8F70474000003416
:1010800083680B4810B5844661446244090112012B
:101090009A18591854684B6801209C4201D802D014
:1010A0000020C0B210BD12680B689A42F9D8F7E769
:1010B000FFFFFF0F0A4B1968EFF3108072B60A6842
:1010C000002AFCD0BFF35F8F1B68BFF35F8F002245
:1010D0001A6080F3108840BF002000217047C0468E
:1010E000082A0020F8B557464E464546DE46E0B58C
:1010F00099460CAB1C780DAB1B78060090469A46BF
:101100000768002C11D1BC7B002C42D065003B68E5
:101110002D19033D59194B78BB73002B00D1FB737C
:1011200000238B704B700B7004E065003B682D1939
:10113000033D5919B2682A4B94464246E3181B01F5
:1011400063441A604A465A600A9A9A600B9ADA60B7
:1011500000238B704B700B707B7B9B46002B2BD03E
:1011600022005946B8687B6898473A68002816D02C
:101170005B4658465B005B445519033BA870D11889
:10118000D35C002B00D06B705B460C707B73A34567
:1011900013D0F0BCBB46B246A946A046F8BD5B469C
:1011A0005B005B44033BD3189C705119525D002ACD
:1011B00000D05A705B460B707C7342464B46307DC4
:1011C00000F0D2FB051E06D05346002B03D12100B0
:1011D000306800F0EDFD0E9B002BDAD01D70D8E7D3
:1011E000FFFFFF0FF0B5DE4657464E46454600234B
:1011F000E0B58BB00893674B8200D45800239B4620
:10120000099000F027FB626806000F00EFF31085DD
:1012100072B61368002BFCD0BFF35F8F23689C4627
:101220005B7B9946002B00D169E0A2685A4B90463F
:101230004B441B01984443461A685B681000190030
:10124000801BB941002900DC63E0099800F08CFBA9
:1012500000230022984600230692079300239A4613
:101260006368BFF35F8F5A461A6085F31088534650
:10127000002B08D10028C4D10BB0F0BCBB46B2464D
:10128000A946A046F0BD089B414618024B461843AC
:10129000D047626806000F00EFF3108572B613683E
:1012A000002BFCD0BFF35F8F002F50DB33003B439C
:1012B00002D02369002B61D12368D97B002907D094
:1012C0004A00521819688C4649466244033A5170E4
:1012D0009A7B002A01D14A469A734A46DA734B46F2
:1012E000E168013BCA5C0132CA545B462361636812
:1012F000BFF35F8F5A461A6085F3108881E7002399
:1013000000229846002306920793002300209A4665
:10131000A6E7002902D1002800D096E70021604608
:1013200000F0C4FC43461A685B6806920793434684
:101330009B689A464346DB689846E3684B44013B0A
:101340001B7808931B0203432361002088E723696D
:10135000002BB1D0069A079B921BBB41002B15DBDB
:101360005946049101210391494602914146019158
:10137000514620000091FFF7B5FEB6E700F06AFA8B
:1013800032003B0012184B41002BE9DA0122034BDB
:101390005242E5E784290020FFFFFF0FFFFFFF7F98
:1013A00010B5144C6368002B04D00A211248FFF7D3
:1013B00029FE10BD2300114A1021206800F090FB87
:1013C000032000F03BFA032000F038FB03200C4917
:1013D00000F084FAFFF740FB0A4B9C460323237579
:1013E000D0231B061B6860446375074B8000606058
:1013F000DC60DAE7B4100020082A00208110001019
:10140000E511001040000034842900200048704796
:10141000B4100020F0B54E464546DE465746E0B5CE
:1014200085B0019310AB1B78060003930023994607
:10143000984600927268EFF3108B72B61368002B17
:10144000FCD0BFF35F8F3568AC7B002C3DD06700CC
:101450002B683F19033FDB195A78AA73002A00D181
:10146000EA73B168474A8C4600980199A2181201A4
:101470006244106051600E9991600F99D1604246AC
:101480009A705A701A706B7B9A46002B67D02200B4
:101490001900A8686B6898472A68002852D05346FC
:1014A00050465B005344D719033BB870D118D35C46
:1014B000002B00D07B7053460C706B7354454FD09B
:1014C000F3681B19013B187800E000207368BFF334
:1014D0005F8F42461A608BF31088002C4FD04B462A
:1014E000002B08D10002204305B0F0BCBB46B24639
:1014F000A946A046F0BD039B002B3ED00E9B0020CA
:101500000F999847030004000D000B4335D00029C4
:101510000ADA009A019B121BAB4100920193002B47
:101520000ADB039B994685E700F094F924184D41A6
:1015300000940195002DF4DA0123134C5B420093D3
:101540000194EEE753465B005344033BD3189C7071
:10155000D119D25D002A00D05A7053460B706C73BB
:10156000307D009A019B00F0FFF981460028A7D04A
:101570002100306800F01CFCA2E70020B4E7012045
:101580004042B1E7FFFFFF0FFFFFFF7F407D704745
:10159000F0B504000D0006267642F717C646361948
:1015A0006F4100B584B08F4214D811D000F052F9C9
:1015B00032003B00121A8B41002B15DC002B3ED071
:1015C0002000290000F07AF904B080BCB846F0BDD4
:1015D0008642EBD90026002700F03CF932003B00A0
:1015E000121A8B41002BE9DD002302930193154B66
:1015F0003200009314483B00FFF70CFF0028DFDBAC
:1016000000239846BC46114A114F7B6A9C4504D87A
:10161000B96A8E42D4D99C45D2D11168EFF31080BB
:1016200072B60B68002BFCD0BFF35F8F1368BFF35B
:101630005F8F4146196080F3108820BFE5E7002ADC
:10164000BED0D1E7B5100010B4100020082A002049
:101650000040054070B504000D0000F0FBF80019D3
:101660006941002902DBFFF793FF70BD01200149AA
:101670004042F8E7FFFFFF7F70B5060000F0EAF890
:10168000FA2204000D00002330000021920001F036
:1016900087FA00196941002902DBFFF779FF70BD65
:1016A000012001494042F8E7FFFFFF7FF0B5EFF36B
:1016B0000583CE46474680B505000C0085B0002B5B
:1016C00012D02C4A0020536A9C4203D8926A0130FF
:1016D000AA4204D305B0C0BCB946B046F0BDE01A7A
:1016E000421E9041C0B2F5E7234E02930193234B73
:1016F0000200009330000B00FFF78CFE031EE0DDBC
:1017000020BF7168EFF3108772B60A68002AFCD018
:10171000BFF35F8FDAB294463068427B62451DD0DA
:10172000FF221A4051008946016891448846494683
:10173000414403398978002913D0F1681B0A88468F
:101740004244013A1278DBB29A420FD07368BFF379
:101750005F8F00221A6087F31088B2E7FF221A40D9
:10176000EBE732699342F1D13161EFE7614600F076
:101770001FFBEBE700400540B4100020B51000103F
:10178000F0B5EFF30582D6464F4646461000C0B589
:101790001038EFF3108872B6214C2368002BFCD070
:1017A000BFF35F8F0123190081401E4D1F00696345
:1017B000AA461D4D29601D4D2E78AC463500C5400A
:1017C0002F402B4209D1BFF35F8F276088F3108829
:1017D000E0BCBA46B146A846F0BD5346144D5F6A18
:1017E00083005D59AF420ED3124A8E439B58624626
:1017F0001670BFF35F8F0022226088F31088002BE1
:10180000E6D09847E4E70C4B92009C46624413688C
:101810001360BFF35F8F0023236088F31088D7E73E
:10182000280100D0004005403C700540492A0020B6
:10183000142A002048230020D03F054010B50100A5
:10184000024A0348FFF78AF810BDC04618AE0010E0
:10185000442A0020034B596A0A00986A596A8A424E
:10186000FAD170470040054070B504000D00124ADF
:10187000536A1900966A536A8B42FAD130001900F4
:1018800024184D41AB4211D80ED02B000A494A6AA8
:101890009A42FCD307D1084A02E0516A994202D128
:1018A000916AA142F9D370BDA642EED90123012469
:1018B0006442E5175B42E9E700400540064A536A87
:1018C0009942FCD807D1044B02E05A6A914202D1F6
:1018D0009A6A8242F9D370470040054070B504000F
:1018E0000D00EFF3108672B61A4A1368002BFCD075
:1018F000BFF35F8F002D1BD02000FFF705F91649BD
:1019000081420AD02000FFF707F901212000FFF7EC
:10191000BFF80123A340114A1360114BA400E55006
:10192000BFF35F8F00220B4B1A6086F3108870BDE7
:101930000B4BA200D5500122A2400A4920000B788F
:1019400093430B700449FFF705FA00212000FFF7CD
:101950009FF8E5E7280100D08117001038600540A6
:1019600048230020492A0020F0B54F46D646464677
:10197000C0B507002C4C616A0D00A66A616AA942D5
:10198000FAD18B4208D805D00120E0BCBA46B14656
:10199000A846F0BDB242F7D9EFF3108A72B62348D9
:1019A00001680029FCD0BFF35F8F0125BD402049AD
:1019B0001D4C8846097889462943C9B28C46414660
:1019C00060460870391D1B48890065630A51B900DB
:1019D0000B50216A0020294219D0616A0800A66ACA
:1019E000616A8142FAD18B4219D801D1B24216D82C
:1019F000CC4516D00C4B1F201D625D6301230740B0
:101A0000BB400D4A1E38136043464A461A70BFF366
:101A10005F8F0022054B1A608AF31088B5E700201B
:101A2000F5E70120F3E7C04600400540280100D05B
:101A3000492A0020142A002080E200E0EFF3108CF5
:101A400072B60A490B68002BFCD0BFF35F8F0123ED
:101A50008340074A0748136202789A430270BFF333
:101A60005F8F00230B608CF310887047280100D033
:101A700000400540492A002070B5050014001600FA
:101A8000002915D00C00002A12D080686B68984796
:101A9000296800280ED073009B196200033B1219BD
:101AA000CB18033A9C7088188A5C002A15D10670FE
:101AB000200070BD63001B197200033B9219CB1804
:101AC000033A9E7088188A5C002A02D104703400A0
:101AD000EEE75A7004703400EAE75A700670E7E7E0
:101AE00030B583600023CCB243730133047342608A
:101AF0008373C4730D000068012C06D9421C0133A6
:101B0000DBB2137003329C42F9D1FF2129404B0014
:101B10005918002340180338437030BDF8B5CE463D
:101B2000474606000C0080B5002907D04D00036829
:101B30006D18033D5A195778002F04D12000C0BCFE
:101B4000B946B046F8BD7900C919033988464344FF
:101B50005978894600215970517073683A00210004
:101B6000806898473368002814D042469A189470C9
:101B700059195B5D002B00D053700F702700494648
:101B80003000FFF7CBFF390002003000FFF774FF91
:101B90000400D3E7424641465D19AF709A185B5C7A
:101BA000002B00D06B701470E9E7C046F0B55746C3
:101BB0004546DE464E46E0B50D006B0001685B19F8
:101BC000DF1E0400C85D83B00192CA19002850D0FE
:101BD00043001B18033BCB185E78B446002E1AD185
:101BE000019E002E42D0E67B002E04D073009B198C
:101BF000CB18033B5D70A37B002B00D1A573E5736D
:101C000000282FD10023537003B0F0BCBB46B2466E
:101C1000A946A046F0BD72006244033A89184A788A
:101C2000904600224A7091465A700100320020000E
:101C3000FFF722FF43468246002B07D05B00216856
:101C40004344033BCB185A78002A16D142465146EA
:101C50002000FFF711FF2168019BCA19002BC2D198
:101C60000028CFD043001B18033BCB1800219970EC
:101C7000C8E7019B002BB6D1C4E750008018033899
:101C800009184878834648464870587041462000F5
:101C9000FFF7F2FE594680462000FFF73FFF41461E
:101CA00002002000FFF7E8FE8046CFE7F0B5574678
:101CB0004546DE464E46E0B583B00191457B0400C3
:101CC0006B0000685B19DF1EC15DC219002952D08C
:101CD0004B005B18033BC3185E78B446002E1CD142
:101CE000019E002E44D0E67B002E04D073009B1989
:101CF000C318033B5D70A37B002B00D1A573E57374
:101D0000002931D1002328005370617303B0F0BC67
:101D1000BB46B246A946A046F0BD72006244033AF3
:101D20008018427890460022427091465A702000F6
:101D30003200FFF7A1FE43468246002B07D05B002E
:101D400021684344033BCB185A78002A17D14246F6
:101D500051462000FFF790FE019B01002068C21948
:101D6000002BC0D10029CDD04B005B18033BC3181A
:101D700000209870C6E7019B002BB4D1C2E7500049
:101D800080180338091848788346484648705870C8
:101D900041462000FFF770FE594680462000FFF7BD
:101DA000BDFE414602002000FFF766FE8046CEE7FA
:101DB00070B5040000292CD0437B8B422ED00568DF
:101DC00048004018033828188278002A21D0530090
:101DD0009B18033BEA5CEE188A4202D11BE0002A02
:101DE00008D053009B18033BEB185A788A42F6D16F
:101DF00042785A7000230122837043702000FFF75D
:101E0000D5FE617B02002000FFF736FE60730120E3
:101E100000E0002070BD43783370EBE70122190029
:101E2000FFF7C4FE60730120F4E7C046F8B5CE4664
:101E30004746040080B506200E0000F023FA051E78
:101E400051D0524B5249E21853425A418023DB038E
:101E50009C4692054F4B62441A604F4B1A6010002B
:101E60008B689843FBD1494B8021E3185A42534178
:101E70004A4A5B0049009952062000F003FA3100FB
:101E8000C00000F0F5FBC30932D140220121904689
:101E90006162A362256BEB0736D427008026E36AD4
:101EA00000232C3776013E4333600620256300F083
:101EB000E9F94146800000F0DBFB236B0500984602
:101EC000DB073BD46022E36A5A406E231340336041
:101ED00043462363802310229B013B431A60304B0F
:101EE00023630323A3642800C0BCB946B046F8BDF1
:101EF0002C4A93423FD900232B492C4A6162A362AA
:101F0000256B9046EB07C8D52200C02330329B01D9
:101F10001343234A06201A60666AA26AB601B618FD
:101F200000F0B0F9224900F0A3FBB6020100300036
:101F300000F09EFB0021FFF797FCAEE72200C023D4
:101F400030329B011343164A06201A60636AA26A64
:101F50009B019946914400F095F94B4614499B0228
:101F6000994600F085FB0100484600F081FB002106
:101F7000FFF77AFCA6E77F229901884610400130DE
:101F8000400819008044030082E7C0460080FCBF7F
:101F900000C0004000E0004000F000402C2A00207B
:101FA00001030000FEFF0000FFFF0000C0FF3F0034
:101FB0004E0E000030B50C2083B000F0B9F9FEF7EA
:101FC000C5FC00280ED0994B994A1A605A609A6055
:101FD000DA601A615A619A61DA611A62954A5A6244
:101FE00003B030BD944CA06700F0F6F90122934B8A
:101FF0001A60636C012BFCD10322914B1A608E4A4C
:10200000936B012BFCD1013301218E4A8E48009342
:10201000043300F03DF905238C4A009301218C48DC
:1020200000F036F98B4B5A68FF2A02D88022520002
:102030005A6080227D4C824B21691201854D1A60C5
:10204000002907D0606900F013FB431C5800C0183A
:102050000338FDD2E0217F4B02201A681140802214
:1020600052012A4311601968484003210140116060
:1020700004219A681142FCD08022802192012A43D7
:1020800009011160802252005A60734B2361734B27
:102090005968FF2900D85A600321684A6F4B1160C4
:1020A00002399A681142FCD0E0201A681040802260
:1020B00052011A4310601868484003210140022071
:1020C000116066498A681042FCD080229201134355
:1020D000802212011A608022614B52004A606361C3
:1020E000604B5968FF2900D85A6080225E4BE16935
:1020F00012015C4D1A60002907D0606900F0B8FA3F
:10210000431C5800C0180338FDD2E02255490B6823
:102110001A4080235B012B431A60802380229B019D
:102120002B4312011A608022414B52004A60E36146
:102130004E4B5968FF2900D85A6080224C4B216AC7
:1021400012014A4D1A60002907D0606900F090FA28
:10215000431C5800C0180338FDD2E02243490B68E5
:102160001A4080235B012B431A60802380229B014D
:102170002B4312011A60802380225B004B602C4BA2
:10218000D20223623B4B5968914200D25A608022AE
:10219000394B616A1201374D1A60002907D0606916
:1021A00000F066FA431C5800C0180338FDD2E02244
:1021B00030490B681A4080235B012B431A6080234F
:1021C00080229B012B4312011A608023DB024B60AB
:1021D000184B6362294B5A68FF2A02D880225200AA
:1021E0005A608022264BA1691201244D1A600029F1
:1021F00007D0606900F03CFA431C5800C01803384F
:10220000FDD2E0221D490B681A4080235B012B435D
:102210001A60802380229B012B4312011A608023C5
:102220005B004B600E4BA361DAE6C04664240020DD
:10223000006CDC021BB70000008000403CB0004096
:1022400030B00040002F685900800240008C864763
:1022500000C0024030800040001BB7003C800040BE
:10226000405973075480004054B0004060800040E3
:1022700060B000406C8000406CB00040488000407E
:1022800048B00040014B8000C058704764240020D3
:10229000F8B5040021481D0017000E0000F0E8F911
:1022A0000100380000F0E4F9069B29041B031943E0
:1022B0002368002B20DB1A4B1A4DE21853425A4177
:1022C00080235B019C461203174B62441A60174B34
:1022D0001A601700AB689F43FBD1C022231D9201F7
:1022E0001A4321232660A06013602368002BFCDAC8
:1022F0000823E1601360F8BD3F2322681340B34216
:10230000D9D1A3681B051B0D8342D4D1EE22E3680B
:10231000D20213408B42CED1EDE7C046001BB7007E
:102320000040FDBF00C0004000E0004000F0004061
:102330008023024A9B000343D3627047008005401C
:1023400010B5140080221B4BD2051A6000281AD049
:102350000123194A1843194BDA61194A42401A629B
:10236000596298628022134BD2051A601549164AA9
:102370001160E022D2041A60002C07D18022134B96
:1023800012061A6010BD0D4BD861EBE763011B1BF1
:102390009A008023121912015B049A4200D30C4A5E
:1023A0000C4B1A60054B5A608022084BD2051A600C
:1023B000E8E7C04600B00540D3C007B00080054044
:1023C0002D3FF84FFCFF01000820014000A0054010
:1023D000FFFFFF0074290020AA23064A1B01136097
:1023E0002F230549D360054B19605368002BFCDA95
:1023F0007047C0460040024000B0FA000060024052
:102400002C4B2D4A70B51A602C4A2D4B2D491A6061
:1024100014008B689C43FBD12B4D2C4EB54208D247
:10242000013E761BB60808CD984723000134B3421D
:10243000F9D1FFF7BFFD264A214B1A60214A936864
:10244000DB43DB01DD09002BF9D14022214B224C7B
:10245000224E9A675A671A67DA66B44208D223682E
:102460002000002B20D00834FEF7E2FDB442F6D362
:102470001B4E1C4CC022A168300000F011FCA6606D
:10248000FEF7DCFAFEF798FDFEF78AFF164C174EB2
:10249000B44208D2013E361BB60808CC98472B0040
:1024A00001359E42F9D170BD0834FEF7B3FDB44248
:1024B000D5D3DDE700E00040BFCDFBFEFE7F3C0052
:1024C00000F0004000C00040681B0020781B002086
:1024D000FFFFFF0100F00140501B0020681B00209F
:1024E0000000002000ED00E0781B0020801B002091
:1024F00000BEFDE7094A03001068002805D008491E
:10250000C3188B4207D81360704706480449C318A4
:1025100010608B42F7D901204042F5E708250020E2
:10252000000004204C2A002010B5FFF7E1FFC04650
:102530000FB400B5084883B000F0E4FC049B002B06
:1025400007D005A91800019100F018F8034800F021
:10255000D9FC0120FFF7CCFF3CAE00104CAE0010C0
:1025600010B50148FFF7E4FF50AE001010B5002889
:1025700000D110BD00F07AFCFBE7C04610B5094A57
:102580000300146884B0002C08D001220091064892
:10259000524203A9A047012004B010BD00F0B2FCD4
:1025A0000020F9E7702900206D2500100148042162
:1025B000014B1847E0100020DD250010142310B552
:1025C0000100188804331B88984710BD162310B5E6
:1025D0000100188802331B88984710BDF8B547469C
:1025E000CE4680B50F1E19D014239946043304003B
:1025F0000025012698464B461888434621681B88CB
:10260000984701C4431E9841013540420640AF42FD
:10261000F1D13000C0BCB946B046F8BD0126F8E79C
:10262000124A936F9B0815D29066D166002905D097
:10263000FFE7FFE7FFE7516F106F704704B5802198
:102640000906C2175140002800D0C84308F048FBD3
:10265000002104BDF0B5146E556E576F166FFFF76D
:10266000E3FF1466556657671667F0BD000000D09B
:10267000114A936F9B0813D210665166002905D04A
:10268000FFE7FFE7FFE7516F106F704704B50028C1
:1026900001D00020C04308F023FB002104BDC04648
:1026A000F0B5146E556E576F166FFFF7E5FF1466A1
:1026B000556657671667F0BD000000D094464A4A39
:1026C000926F9208624601D228E0C046F0B5464EAD
:1026D000346E756E776F366F00F020F89446424A7C
:1026E00014665566576716676246F0BD94463E4AC3
:1026F000926F9208624601D254E0C046F0B53A4E5D
:10270000346E756E776F366F00F04CF89446364A2B
:1027100014665566576716676246F0BD002B24DBCA
:1027200011D000293EDA00B5C943404200D1013141
:1027300000F038F8C943404200D10131DB43524236
:1027400000D1013300BD002AEBD1002801D10029BE
:1027500005D00020C90FC90701D1C043410800B509
:1027600008F0AEFA0022002300BD00B500290ADB04
:10277000DB43524200D1013300F014F8C943404218
:1027800000D1013100BDC943404200D10131DB43DA
:10279000524200D1013300F005F8DB43524200D130
:1027A000013300BD002923D1002B18D1002A0CD001
:1027B000BC460D4F38667A6600210023FFE7FFE72D
:1027C000FFE77A6F386F67467047002801D00748E7
:1027D000010000B508F074FA0022002300BD0200D9
:1027E0000B00002000217047000000D0FFFFFFFF1A
:1027F000002B00D0BFE0130C28D1002AE7D080B412
:10280000114F39667A66FFE7FFE730B4040C7B6F3F
:10281000396F1B0423433B667A66FFE7FFE7FFE758
:10282000C04684B27B6F3D6F1B0423433B667A66D0
:10283000FFE7FFE7C04600232C042D0C7A6F386FAA
:1028400000196941B0BC7047000000D0F0B5944653
:102850000025140E01D112020835140F01D1120106
:102860000435940F01D192000235D40F01D15200EA
:102870000135D40B0134254F7C66254C3C660E0C8B
:1028800093B2FFE7FFE7FFE73C6F6643360C770341
:10289000BE467343DF0B5B04C01AB941130C73438C
:1028A000DB18C91ACE086643360CB64493B273439C
:1028B0001F0F1B01C01AB941130C73431F0B1B05DB
:1028C000C01AB941860D8F023E436643360C092D6E
:1028D00024DB520A7243801A7703460A6643360C99
:1028E00016235B1BDE40DF40BF1964466643821B34
:1028F0007046043506330100D940A840C01900D302
:102900000131A24206D20023F0BD0000000000D039
:10291000FFFFFFFF121B0130F3D3F1E709277F1BF5
:10292000FE406446A2B27243801A00D20139220CE2
:102930007243130C1204821A99410B00704604353D
:1029400013370100F940A840801900D30131002B52
:1029500002D1A2420AD2F0BD013000D30131121BD4
:10296000FAD2013BF8D1A24200D2F0BD013000D32F
:102970000131121BF7E7F0B51C0C00D080E00CB45D
:1029800000251C0A04D11B02160E3343120208351F
:102990001C0B04D11B01160F3343120104359C0B91
:1029A00004D19B00960F334392000235DC0B02D119
:1029B00092185B4101351C00971864410134464F61
:1029C0007C66464C3C660E0CFFE7FFE7FFE7C0461F
:1029D0003C6F6643360C7703BE4697B27743C01B05
:1029E00000D20139C01B00D201399FB27743C91B05
:1029F000C91B170C77437E04FF0B801BB941CE081F
:102A00006643360C0C2D33DBB644120B1F053A43DC
:102A10001B0B97B27743C01B00D201399FB277439B
:102A2000C91B170C77433E043F0C801BB941860D30
:102A30008F023E43664329277F1BFE400C3D7746AD
:102A4000AF40BF1930BCA2B2ABB272437343801A1D
:102A50009941220C7243130C1204801A994102000E
:102A60000B000137001BA941F9D2781E0021F0BDEF
:102A70000C277F1BFE4077467F0BAF40FF19E0E736
:102A800000245D1C07D0144F7D663966FFE7FFE721
:102A9000FFE7FFE73C6F95B29EB265436643401B7C
:102AA000B141150C1E0C6543664336042F0C3E43A2
:102AB0002D04401BB141994204D202000B002000BA
:102AC0000021F0BD01D19042F7D3801A9941013421
:102AD0009942F2D3F6E70000000000D0FFFFFFFFAD
:102AE000132370B51D78012D15D010DD1C48FFF79C
:102AF0006DFD1C4C01008022200000F0D1F8022D59
:102B000006D01948FFF75AFD184B186070BD154CD8
:102B1000174BA364F5E7164B124C23606360A36068
:102B2000E36023616361A361E36123626362A36283
:102B3000E36223636363A363E36323646364A36463
:102B4000E36423656365A365E36523666366A36643
:102B5000E36623676367A367E367A364D1E7C046BF
:102B600053440000881C00204C330000042A00203D
:102B7000752B001007B5604601880A0A0230DF2A6B
:102B8000FAD1C9B2820804D30288408800041043F5
:102B900000E00068014A5050039007BD881C0020E7
:102BA00051434343C9188C46110C83B24B4310B4B4
:102BB000040C614392B280B2504362431C041B0C6C
:102BC000001910BC59411304120CC0185141614442
:102BD00070470000132310B512481C78FFF7F6FC6D
:102BE0000100012C0AD003DD80220F4800F058F8C4
:102BF0000E48FFF7E3FC0E4B186010BD0A4C542240
:102C0000200000F04DF80B4B6365A365E365236678
:102C10006366A366E36623676367A367E36723626C
:102C2000E361E5E753460000881D00204C330000B7
:102C3000042A0020392C001007B5604601880A0AD2
:102C40000230DF2AFAD1C9B2820804D30288408850
:102C50000004104300E00068014A5050039007BD93
:102C6000881D002070B50400054D280008F098F874
:102C7000200002F069FD280008F01AF870BDC04677
:102C8000581B002001480421014B1847F010002078
:102C9000DD250010014B1B6818470000F0100020D4
:102CA000014B5B6818470000F0100020030010B5CE
:102CB000080011001B68984710BDC046F0B5464695
:102CC0004F46D646C0B5437D80460E001700002B08
:102CD00046D0002A3FDD4B1E9946244B0125002497
:102CE00000209A460DE04B461B5D0D3B5A42534176
:102CF000325DDBB20A2A0BD02B00013401359F4232
:102D00001ADD002CEFD14346325D1B7D0A2AF3D138
:102D1000002BF1D1A04204DA4346211A1B68301877
:102D20009847434650461B680221984701342800C3
:102D30002B0001359F42E4DC874204DD4346391A0B
:102D40001B6830189847F619013E33780D3B5A42FC
:102D5000534142461375E0BCBA46B146A846F0BDA1
:102D60000368110030009847F5E7C046C0AE001078
:102D7000F0B5DE4657464E464546E0B585B01700ED
:102D80001C0006000D00FEF765FD0023304A1218F6
:102D90004B41002B58DB2F4908008A4607F0D0FF33
:102DA00001906B1C03D1300004F044FA0500002CA4
:102DB00025D1294B9846294B1C68002C15D0002F93
:102DC00020D1274F02E02469002C0ED02368002B6D
:102DD000F9D03B68002B01D0A342F4D120002A0097
:102DE0003100C0472469002CF0D1019B002B27D172
:102DF00005B0F0BCBB46B246A946A046F0BD194B93
:102E00009846D8E7164B994602ABDF1D0A239B462E
:102E100002E02469002CE8D02368002BF9D04B464F
:102E20001B68002B01D0A342F3D12A0031002000FF
:102E3000C0475B460122390020003B70C047E8E7ED
:102E4000504607F035FFD3E70122074B5242A2E775
:102E500040420F00601B0020BD2C0010FC2400200D
:102E600004250020AD2C0010FFFFFF7FF0B5CE46FB
:102E7000474680B583B06B460600DD1D2870FEF71F
:102E8000E9FC00231A4A12184B41002B2BDB19498D
:102E90000800884607F054FF174B81461C68002C39
:102EA00014D0164F02E02469002C0FD02368002BA9
:102EB000F9D03B68002B01D0A342F4D120000122BD
:102EC0002900FFF7FBFE2469002CEFD14B46002BB5
:102ED00005D1300003B0C0BCB946B046F0BD404695
:102EE00007F0E6FEF5E70122054B5242CFE7C04668
:102EF00040420F00601B0020FC240020042500201D
:102F0000FFFFFF7F70B5040004F094F90023010077
:102F1000050001222000FFF72BFF084B1C68002C46
:102F200006D06368002B05D098472469002CF8D19F
:102F3000280070BD2469002CF3D1F9E7FC2400209F
:102F4000F0B54746D64680B516000F0083B000287E
:102F50002DD11C4B1C4D1A685B68019200931B4BD2
:102F60009A461B4B984653461C68002C03D114E02C
:102F70002469002C11D02B68002B01D0A342F7D17B
:102F8000A368002BF4D03100380098470028EFDD0B
:102F900003B0C0BCBA46B046F0BD434600995B6A78
:102FA000994209D842460198926A824202D301208E
:102FB0004042EDE79942FAD101200021FEF754FC8E
:102FC000D1E7C04610AE001004250020FC240020EC
:102FD00000400540F0B54646D6464F460138C0B5DC
:102FE0000D00160001283ED8FEF734FC00231F4ACE
:102FF00012184B41002B32DB1D49B04608008946B0
:1030000007F09EFE8246731C03D1280004F012F9DB
:103010008046184B1C68002C14D0174F02E024691E
:10302000002C0FD02368002BF9D03B68002B01D077
:10303000A342F4D1200042462900FFF73FFE246955
:10304000002CEFD15346002B05D13000E0BCBA462E
:10305000B146A846F0BD484607F02AFEF5E7012232
:10306000064B5242C8E701267642EEE740420F0087
:10307000601B0020FC24002004250020FFFFFF7FB0
:10308000012040427047C046012040427047C04680
:103090000A4A1368002B05D10CE01A001B69103294
:1030A000002B07D09842F8D1002902D103691360A0
:1030B000016170470029FCD01060FAE7FC24002071
:1030C00010B500F0D9F910BD7047C0460022014B81
:1030D0001A707047462A00204B790020FF2B0BD135
:1030E0008B79002B08D1CB79012B05D1082A03D984
:1030F0008A78024B09301A707047C046462A002071
:103100000120704770B5012909D11549537910790B
:1031100009781B0203430020994202D070BD0120B0
:10312000FCE75378012B08D0022BF7D10020642252
:103130000021FFF705F90120F0E79478D278050027
:1031400012021443D20502D5620A93401D000548BD
:10315000FFF734FA7F210300214028009847C0463A
:10316000462A0020554200000123037000487047A2
:10317000C4AE001048780B788A7800021843120415
:1031800010439622CB7810B51B060343D20093421E
:1031900000D010BD0348FFF711FA0021030008001A
:1031A0009847C04655420000024B1860024B196018
:1031B0007047C046582400205C24002010B5024B04
:1031C0001878FDF783FC10BD472A0020114B70B51D
:1031D0001A68002A1AD0EFF3108172B6106800281E
:1031E000FCD0BFF35F8F00220B48596002701B6850
:1031F000BFF35F8F1A6081F3108800240025074B0E
:103200001878FDF763FC2900200070BDFA24002522
:10321000A400F4E77C290020482A0020472A002047
:1032200070B5040000200E0001F02EFB002835D000
:10323000002001F041FB002830D0FEF70BFB0023FB
:10324000184A12184B41002B24DB174D280007F0B9
:1032500077FD002822D0002001F016FB00280BD1BA
:10326000012000210324404200F0F8FC64422800C1
:1032700007F01EFD200070BD002001F01DFB00289E
:10328000EED021003200002001F022FB041EEED11E
:10329000033CECE70122054B5242D6E7032464428B
:1032A000E8E7C04640420F000C2A0020FFFFFF7FE6
:1032B000F8B5DE46574680B505000C00FEF7CAFAA1
:1032C0000023364A12184B41002B5ADB34490800C0
:1032D0008A4607F035FD002803D1C0BCBB46B24684
:1032E000F8BD002001F0D0FA00284ED00026002CB6
:1032F00043DD2C4B9B4614E0A919002001F05CFB38
:10330000070001200021404200F0A8FC002001F04D
:1033100017FBFEF79FFA234BF61918605960B44269
:103320002BDD002001F062FBA71B0200B84200DD8C
:103330003A00002AE0D101200021404200F08EFC3A
:10334000002001F0FDFA002001F09EFA002814D0C0
:10335000002001F04BFB0028E1D1FEF77BFA5B4631
:103360000F001A685B68002184460F4812184B4111
:103370009F4202D8D3D19445D1D9504607F098FC4A
:10338000ABE70122094B5242A0E700200021054B88
:1033900018605960504607F08BFC9EE740420F00D2
:1033A0000C2A0020801C002020A10700FFFFFF7FC7
:1033B00010B5244C84B00021200007F0B1FC002897
:1033C0001CD1214B1A68002A16D0EFF3108172B677
:1033D00010680028FCD0BFF35F8F01241B485960A0
:1033E00002781B68D2B20470BFF35F8F00201860B0
:1033F00081F31088002A0AD004B010BD01200021FA
:10340000404200F02BFC200007F052FCF4E7FDF7EF
:10341000FDFF0400FEF71EFAFA22002392001218A4
:103420004B41002B09DB0121029100210191084948
:1034300020000091FDF7EEFFDEE70122054B52422E
:10344000F1E7C0460C2A00207C290020482A0020F1
:10345000CD310010FFFFFF7F054B10B51868002825
:1034600004D0044B0022196801F070F810BDC0466A
:10347000582400205C240020F0B5C646D02300B5B7
:103480001B0684B01C68FDF7C1FFFEF77FF8A04261
:1034900005D00024200004B080BCB846F0BD384BF5
:1034A0001B7801F08DFC3748FDF7B4FD0120FDF7D6
:1034B00095FDFF23344C354920701840FDF72CFB57
:1034C00020780121FDF7E4FA0520FDF707FB00282D
:1034D0003CD1FDF79BFF0400FEF7BCF9FA22002364
:1034E000920012184B41002B45DB01210291002173
:1034F0000191274920000091FDF78CFF082204006C
:1035000000212448FFF7C6FB002CC2DB0121224822
:10351000FFF7BEFD0027FEF79DF9204E36184F41FC
:10352000002F23DBB8461E4D002001F0ADF9041E2C
:1035300018D10A20FEF7A0F86B6A4345F4D3AA6AB3
:10354000B24201D24345EFD00124A3E7002215493E
:103550000520FDF70BFBFDF77FFA01000D48FDF795
:1035600085FDD3E73220FEF787F893E701260E4B5F
:1035700076429846D7E701220B4B5242B5E7C04648
:10358000DCBC00100C2A0020472A0020B1330010B8
:10359000CD3100107C29002000110020404B4C0050
:1035A00000400540BD310010FFFFFF7F004870471D
:1035B0007CAF00100048704728AF001070B50400C1
:1035C00017480378002B21D0002C06D1C1241548C0
:1035D000154BA4004380048070BD052C1DD8134BEF
:1035E0001048A400E558811C002304E001330A8040
:1035F0000231132B0ED0EA5CDCB2002AF6D1C023D4
:103600000134E4B264009B001C43E4E7112100F0A4
:1036100017F8D9E7CA24A400DDE70020DCE7C0469C
:10362000302A0020D42400200904000090AF0010AC
:1036300010B5024800F0D8F810BDC046942900200B
:1036400030B54B1E012900D1A7E0664A11780D1153
:103650002C0030349F2900D9A2E00470012B00D146
:10366000BEE00F21147821400C003034092900DD20
:1036700098E04470022B00D1B2E054782511290063
:1036800030319F2C00D990E08170032B00D1A7E04E
:103690000F2121400C003034092900DD87E0C4707F
:1036A000042B00D19CE094782511290030319F2C07
:1036B00000D97FE00171052B00D191E00F2121405D
:1036C0000C003034092900DD76E04471062B00D16E
:1036D00086E0D4782511290030319F2C00D96EE086
:1036E0008171072B00D17BE00F2121400C00303489
:1036F000092966DCC471082B00D171E01479251109
:10370000290030319F2C5FD80172092B68D00F211E
:1037100021400C003034092958DC44720A2B5FD058
:1037200054792511290030319F2C52D881720B2BEE
:1037300056D00F2121400C00303409294BDCC472D3
:103740000C2B4DD094792511290030319F2C00D9B4
:10375000073101730D2B43D00F2121400C00303471
:10376000092901DD37310C0044730E2B38D0D17993
:103770000C11220030329F2900D9073282730F2B9F
:103780002ED00F220A4011003731092A01DC3032D5
:103790001100C173102B23D010300023037030BDF3
:1037A00007345AE737310C0063E707316CE73731EC
:1037B0000C0074E707317DE737310C0085E70731EE
:1037C0008EE737310C0095E707319DE737310C0064
:1037D000A3E70731AAE737310C00C4720C2BB1D133
:1037E000C018DAE79429002030B5002589B004001C
:1037F0000922002101A80095FFF74CFA09220021B7
:1038000005A80495FFF746FA4B236A4668461370ED
:1038100004A90D2207F044FA15210822200069446A
:10382000FFF73EFA09B030BD10B501210520FDF7C4
:103830002FF910BD10B500220021024800F05AF9FE
:1038400010BDC0462C2500208022024B5202DA64B3
:103850007047C04600201150F0B5C64600B50600BE
:1038600000F022F90C231B4DFF22AB6705201A49FB
:10387000FDF77CF940239846184C40220021200097
:10388000FFF708FA43460127238321210023144A26
:103890006770A260136063545F3161844146218781
:1038A000053963540F4A10496360E260A1620B60FE
:1038B0006362E26207F064FA80239B052F64EB6485
:1038C00090230A4A3000EA50FFF7BEFF80BCB8469A
:1038D000F0BDC04600001150D90500200C25002085
:1038E00084001050000110508000105010D00100D2
:1038F0000B785B0602D14B78052B00D070478A7895
:10390000014B1A60FAE7C04600001150F0B5C646F8
:1039100000B54B790C791B0288782343CC787F2142
:10392000A4070140C509A20F4F001400324E7A19B6
:103930005201B218907001206840507000205B0561
:103940005B0DD0701383D4768046CA00012D33D02E
:103950002A488446880162448446B44460468260B2
:1039600040461060002933D0254AC900904662467F
:10397000414451603F223F339343022C00D15B000E
:1039800020487A1901685201B218D1601E4ACB183A
:10399000036051405340802288465201934228D808
:1039A0004346A4061C4380237F197F011B06F6199A
:1039B0001C4373681C6011E014488446880162440B
:1039C0008446B4446046826240461060002909D1B2
:1039D00000236D01761973600D4BF360012080BCEC
:1039E000B846F0BD084AC90090466246414451625B
:1039F000C0E7FEF7B5FDD3E70C250020840010508A
:103A00000400105078290020000010508000105051
:103A10000001105010B507F0B3F910BD10B57F20AC
:103A20000C0020404000E409110000191A00034B6B
:103A30004001C01800F05EF8012010BD0C250020E8
:103A40007F22130010B50B400A420BD0C909802217
:103A5000580040180649400140181201002107F0A3
:103A600097F910BD02220348C909521A8266EEE78F
:103A70000C250020002011507F22100010B50840B6
:103A80000A4200D110BD0023C90940004018044972
:103A90004001081800220349C37007F079F9F1E7E3
:103AA0000C250020FFF7FFFF80220D4B520410B5BC
:103AB0001A600C4B0C491A6010008B689843FBD1BC
:103AC0000A4C9C2200212000FFF7E4F8802200210C
:103AD00052010748FFF7DEF80923636710BDC046AF
:103AE00000E0004000F0004000C000400000115025
:103AF0000000105070B5837E04000D001600002BEE
:103B000017D10023E38201332000A682A37625612A
:103B100007F0FEF8002804D080219023084A89028B
:103B2000D150200007F0E4F8002805D001232377C6
:103B300070BD07F01DF9E4E7200007F009F9F7E789
:103B400000201150024B5878431E9841C0B2704774
:103B50002C220020024B18784007C00F7047C04647
:103B60002C220020034B1878FF38431E9841C0B226
:103B70007047C0463C110020F8B5CE46474680B598
:103B80002C4E050033780120FF2B03D0C0BCB94672
:103B9000B046F8BD532200212748FFF77BF8274C99
:103BA0002000FDF737FA264B1C60264C200014300D
:103BB000FDF74CFA200001F0D1FB234B234F1C6092
:103BC000234B9846002B04D03800FFF7CDFA214B49
:103BD0001860424600243B78002A23D01E4A9046B3
:103BE0001C4A9146A34212D80FD14346984701344C
:103BF0003B78E4B2A342F5D228003570FFF72CFEE3
:103C00002800FFF711FE0120C0E70020BEE74A466A
:103C10001268630094461B19DB006344002BF4D048
:103C20001B68E3E700F0EEFE3B780020002BADD1EF
:103C3000E2E7C0463C1100202C220020E4210020B5
:103C4000802200202011002084220020412A002010
:103C500069310010041F0020054A0010F0B5DE464F
:103C600057464E464546E0B58BB001F0AFF8002808
:103C700000D10FE1C74BC84D9946C84B07AC9B46D6
:103C80002E687269EFF3108172B61368002BFCD0B6
:103C9000BFF35F8FB1613000210001F0A1F97269BB
:103CA000B369BFF35F8F0021116083F31088002890
:103CB00000D1EFE06378082BE2D84A469B00D35846
:103CC0009F466368002BDBD0A0689847D8E77F2227
:103CD0002179B24E0A405000CB093618F618300050
:103CE00001273030C378BB43C370C3780337BB436D
:103CF000C370002A00D1F2E0A94AF37C002A06D062
:103D0000A84A1278934200D260E19B1ADBB2002BE2
:103D100000D0BFE0A44E62792078A368B047AFE737
:103D20005B4601221B78012113435A46137033234B
:103D30005846D25C5E468A43C254C25C0420824329
:103D4000F2540133F25C8A43F254F25C8243F2543F
:103D5000237800209A4600F005FD602223791A405E
:103D6000602A0DD0402A00D1BFE0DB06DB0E012B1C
:103D700000D136E1022B00D1D4E0002B00D1C3E00A
:103D800020780021FFF75CFE80212078FFF758FEA5
:103D900076E7824E3378DB0700D471E7834B002B44
:103DA00000D16DE700E000BF6AE77C4E3378DB07A7
:103DB00000D465E77E4B002B00D161E73078000727
:103DC000C00F00E000BF5BE7764B754A98460026BF
:103DD00027781B78002A00D179E0764A92469E42E5
:103DE0005FD319D1744B38009847434601361B788E
:103DF000F6B2B342F3D2694E532200213000FEF7EF
:103E000049FF1022FF21F01CFEF744FF3000202262
:103E1000FF211330FEF73EFF00F09AFC674B002BAA
:103E200000D12DE700E000BF2AE75E4B5C4A9846D0
:103E3000002627781B78002A1FD05E4A92469E42B1
:103E40003AD321D15C4B38009847434601361B7862
:103E5000F6B2B342F3D2514E532200213000FEF7A6
:103E600019FF1022FF21F01CFEF714FF3000202262
:103E7000FF211330FEF70EFF07E0380000F000FED0
:103E800043461B78002BE6D0444E00F061FC2379BA
:103E9000B370F5E60BB0F0BCBB46B246A946A046EF
:103EA000F0BD52461268730094469B19DB006344D0
:103EB000002BB1D05B6896E75246126873009446B7
:103EC0009B19DB006344002BDED05B68BBE7380046
:103ED00000F0D6FD43461B78002B9DD18BE762791D
:103EE0002078A36800F052FCCAE63548002800D1CB
:103EF00046E700F037FC0121504608AA00E000BF69
:103F0000002800D0BCE63BE7202A00D19EE0002A32
:103F100000D035E76379092B00D931E7294A9B00A6
:103F2000D3589F467023217A0B4200D028E7584689
:103F30000F330B405B00CE09C018194F8019C07CAD
:103F4000002F06D0174F3F78B84200D2A0E0C01B28
:103F5000C0B2002800D096E0002A00D047E11A4FF6
:103F60000220627990468243012A00D142E1424612
:103F7000002A00D004E75B449E193036F37806AA85
:103F80009B07DB0F023213805046022308A900F082
:103F900081FB75E610B00010842200202C22002046
:103FA00069310010412A0020794C00100000000007
:103FB00000000000041F0020814A001000000000E3
:103FC0000000000034B000109CB000105A00D3185C
:103FD000B14ADB001268D318002B00D15AE71E69E2
:103FE00099E6237A0F2B00D9CAE6AC4A5B44DB780A
:103FF000002A05D0AA4A127893425ED39B1ADBB2FC
:10400000002B00D0BCE6A748A74E00F0ABFB012177
:104010005046F36808AA9847002800D030E660228E
:10402000160023791E401A4200D0A9E663790A3BA4
:10403000012B00D9A4E600F095FB63790A2B00D18F
:1040400020E1504608A900F00DFB19E6237A0F2B5A
:1040500000D995E6914A5B44DB78002A06D0904A65
:104060001278934200D2E6E09B1ADBB2002B00D01C
:1040700086E68C488C4E00F075FB01215046F368B3
:1040800008AA98473CE70027002A00D168E777E6AE
:1040900047003818804FC0003F683F18002A00D101
:1040A0005EE7002F00D16BE6F86800F05BFB0121B2
:1040B0005046FB6808AA984722E7774A5E00F31843
:1040C0001668DB00F618002E00D159E6F0689CE770
:1040D000A279019273789A4207D07378002B00D0AE
:1040E00046E1019B002B00D0EAE05B46019A504676
:1040F00008A95A7000F0B6FAC2E5737806AA02322F
:1041000013705046012308A900F0C4FAB8E5E0880E
:10411000030AC0B20F2B00D932E664499A008A58CC
:10412000974608A800F024FB5046A179FFF782FBD0
:104130000222337813433370A2E5E388012B00D0C9
:104140001EE60822337893435A46137079E702201B
:10415000317806AB9A1C8B068908DB0F01400B43B4
:1041600011E7E388012B00D00AE6082233781343D5
:10417000EAE74F4B002B00D102E600E000BF021E31
:1041800000D1FDE5D37891781B020B43504608A976
:1041900000F080FAB4E6474B002B00D1F0E500E0D8
:1041A00000BF021E00D1EBE55046137808A900F0CD
:1041B00071FAA5E62189FFF701FA021EF4D1DFE5C5
:1041C000022B00D112E13C4B002B00D1D8E500E0DE
:1041D00000BF0200002A00D1D2E5D3E7FFF7E6F9DD
:1041E0001223020008A9504600F054FA88E62D4830
:1041F0002D4F5AE7E288002A08D142465B449E19B7
:104200003036F378012A21D09B072ED5002F00D11C
:1042100036E5F86800F0A6FAFB6808AA01215046C6
:104220009847002000F09EFA34235A46D35CDB07FF
:1042300000D525E505E7184A5E00F3181668DB008F
:10424000F618002E00D19BE5F06814E79B07DDD53A
:104250001A4B1878FFF710FC0222F378934342467A
:10426000F370F3789343F370D0E7144B1878FFF7AB
:10427000E7FB0222F37813430122F370F378134330
:10428000F370C3E706AB9A1C5046012308A91670C9
:1042900000F000FAF4E4C046041F00206931001069
:1042A000412A0020954B00109CB000105CB000101B
:1042B0000000000000000000000000003C11002091
:1042C000581EC0B2FFF776F9002800D158E54378B0
:1042D0000593022B00D053E50121C2790700931109
:1042E00052110B400A4012015B0113435A461278E7
:1042F0002F318A4313435A461370C37882781B02C6
:104300001343C31809370393039BBB4200D8ACE0A7
:1043100001227B7800920B2B03D1FB7800933B7832
:10432000FF187B78042B00D02AE50026039B584A0F
:10433000DB1B9BB20293574B04931B78B24263D0B2
:10434000B846B34256D800D01AE5534B534F4146B6
:104350005046029A9847082803D9029A824200D30D
:104360008AE0049B01361B78F6B2B342E9D207E536
:104370005046FFF74FFBB378454A0093454B002664
:1043800098461B78002A0DD0454FB34225D820D13E
:10439000444B50469847434601361B78F6B2B34229
:1043A000F3D206E0504600F06BFB43461B78002B2F
:1043B0000FD1532200215846FEF76CFC5B461022B9
:1043C000FF21D81CFEF766FC2022FF213648FEF7AD
:1043D00061FC5B46009A9A7083E618233A6873433F
:1043E00094466344002BF4D05B68D2E7FFF7E2F811
:1043F0000200EFE62A4B1F6818237343FF18002FB3
:1044000000D1BDE4BB68A2E7029B39001A00504608
:10441000984600F04BFB082800D8B1E4424682429F
:1044200000D2ADE41D4B9846009B012B28D0002202
:104430000AE0BB78D318DBB25B44D978FF2900D0FF
:104440009EE40132DE70D2B2009B9A42F1D18046E6
:10445000330002003900144800F03CFD049B47443F
:104460001B78B34200D34FE78AE4104B002B00D1F6
:104470003BE600E000BF38E63B0047469846D3E7FE
:104480004246054B92689A42D1D1059B0093CEE7F4
:1044900069310010412A0020AD4A00109CB0001084
:1044A000041F0020814A00103F220020000000006D
:1044B000F8B557464E46DE4645460C00E0B51600B8
:1044C0001F00002A3CD0702398461E4B00259B46B7
:1044D0001D4B9A461AE05B461B78200099465346CE
:1044E000997800F0BBFC00281CD021004846FFF75B
:1044F0000DFA002816D0A378DA09012A19D00A9AF1
:10450000013513702378E418B54219DA6378052B66
:1045100008D1E3789B079B0FBB4203D14246A378A7
:104520001A42D8D00020F0BCBB46B246A946A046ED
:10453000F8BD0B9A013513702378E418B542E5DB1A
:104540000120F0E73C1100202C220020802310B530
:104550001B0184B001930E4B02901C6803916269A9
:10456000EFF3108372B611680029FCD0BFF35F8FA0
:10457000A361200001A900F0F9FD6269A369BFF3FE
:104580005F8F0021116083F3108804B010BDC04616
:1045900084220020702270B58B780C001A4201D062
:1045A000002070BD064B20001D78064B997800F066
:1045B00055FC0028F4D021002800FFF7A7F9F0E708
:1045C0003C1100202C220020074B080019687F2393
:1045D00010B50340C0095B0033301818034B18189E
:1045E00000F0F8FB10BDC046802200202C220020E5
:1045F000074B080019687F2310B50340C0095B0012
:1046000033301818034B181800F00CFC10BDC046CE
:10461000802200202C2200207F2070B508400F4C03
:104620004000CD09241864193034E5780020ED07E6
:1046300000D570BD0126E578094835430078E5705E
:10464000FFF7ECF90028F4D10122E3789343E370FB
:10465000E37803329343E370EBE7C0462C2200205B
:104660003C11002070B50A4E0500300008220C00F5
:10467000FEF716FB00237F21F3602278B36091429E
:104680005B412800D90100220023FFF7C5FF70BD60
:10469000D0210020F8B5CE46474691462A4E80B537
:1046A0000822070030000D009846FEF7F9FA4B4645
:1046B000B3600023F381EC79A97924020C43231C15
:1046C000444500D943469AB29046B381002C13D09A
:1046D000002A1FD04B46002B34D0131C402A1FD871
:1046E0009BB2984633787F2B20D80021174A434647
:1046F0003800FFF791FF09E07F222B7838009A42BB
:10470000644100230022E101FFF786FFC0BCB946E7
:10471000B046F8BD33787F2B11D980210022E6E71F
:1047200040239BB2984633787F2BDED9074C424614
:1047300049462000FEF7B4FA80212200D7E7002185
:104740000022D4E70020E1E7D0210020EC21002066
:1047500010B5142200210248FEF79CFA10BDC04695
:10476000D0210020014B18617047C046D0210020A5
:1047700010B5054C010008222000FEF791FA002335
:10478000A360E36010BDC046D0210020F8B53B4CCB
:104790001D0023780600DA09C9098A4213D00020D7
:1047A000002D00D0F8BD364B002B03D02100300087
:1047B000FFF79EF82369002B44D02200032130002C
:1047C00098470120EEE77F2B06D8A068002837D055
:1047D0002A002C49FEF764FAA368E2895919521994
:1047E000E38892B2E281A160934214D03F2D12D9A6
:1047F000A589A81A071C80B240282FD82378BFB2F9
:104800007F2B2DD80021AA4235D01E4A3B00300014
:10481000FFF702FFC6E72369002B05D02200022123
:104820003000984700280FD07F22002123783000E5
:104830009A42494100230022C901FFF7EDFEB1E78A
:104840000020AFE70120ADE700213000FFF7F8F8C6
:1048500030008021FFF7F4F80120A3E74027CDE7DF
:10486000AA4207D0074C3A002000FEF719FA80212F
:104870002200CBE780210022C8E7C046D0210020DB
:10488000F1380010EC21002010B50400FFF75AF9B0
:10489000002801D1002010BDFFF75CF90028F9D1F4
:1048A000B2208000444303480019037901201840D6
:1048B000F1E7C046081F0020B2239B00584310B503
:1048C000024B1030C01800F057FB10BD081F00202D
:1048D000F0B5B225AD0045432C00C646174F103445
:1048E000E41900B5200092B200F0CAFB06002000D7
:1048F00000F060FB3F2803D8300080BCB846F0BD14
:104900007B190020D9789846FFF75EFE0028F3D087
:10491000200000F04FFB3F280AD992239B00EA18A1
:104920004346D219D97800204023FFF775FEE3E70C
:1049300043460020D978FFF75BFEDDE7081F002023
:10494000F8B50400FFF7FEF8002801D10020F8BDFB
:10495000FFF700F90028F9D1B22080004443250078
:10496000144E2435AD19280000F006FB0028EDD0C8
:1049700037190020B978FFF727FE0028E6D0A223D8
:104980009B009C466444A41921002800402200F0AA
:1049900077FBB978051E08D0030022000020FFF73E
:1049A0003BFE0028D2D02800D1E70020FFF720FEF0
:1049B000CCE7C046081F002070B5B224A4004443D1
:1049C000094B2434E418050092B2200000F012FCD8
:1049D0000600200000F0D0FA3F2801D8300070BD5A
:1049E0002800FFF7ADFFF9E7081F0020B2239B0066
:1049F000584310B5024B2430C01800F0DBFA10BD4C
:104A0000081F0020B222F0B51B4C83B0002120000B
:104A10009200FEF73FF9FF236371184B80260025B3
:104A2000E380012708232100200076002373320051
:104A3000278138310095073B103000F065FA2100DE
:104A4000200039313200FF3101230097243000F07B
:104A50005BFA8E239B00E6183000FCF7DBFA90230C
:104A60009B002662E6183000E561FCF7D3FA266366
:104A7000656303B0F0BDC046081F002000C2FFFF01
:104A800010B5094C052200212000FEF703F9200093
:104A90002434103000F062FC200000F05FFC0121A3
:104AA000200000F07BFC10BD081F0020F0B54B7902
:104AB000060083B0022B02D18B79022B03D0002594
:104AC000280003B0F0BD304FBB78002BF7D18B78B6
:104AD00009253B700C780C196378242B0BD1082A1C
:104AE00002D80FE0AA420DD32378E418ED186378BA
:104AF000ADB2242BF6D0052B21D0042B02D1637943
:104B00000A2B2FD0214C200000F054FA3F28D7D98F
:104B10002600103E0020F178FFF756FD0028CFD088
:104B2000200000F047FA3F2817D98E239B00E21897
:104B3000F93BF178FF3B0020FFF76EFDC0E7210055
:104B40003000FFF727FD0028B9D0A3787B702378C9
:104B5000ED18E4186378ADB2CFE7F1780020FFF7E5
:104B600047FDADE70A4B27780193013300930222FA
:104B700002233000E119FFF79BFC00289FD00E357F
:104B8000ED19ADB2BEE7C046081F0020181F002077
:104B90000A1F0020F8B560231400127805001340A6
:104BA0000020202B12D12F4A6379277916781B0217
:104BB0003B439E420AD16378222B27D007D8202B73
:104BC00017D0212B02D101293DD00120F8BD232B84
:104BD000FCD101293FD00329F7D1234B002BF4D07E
:104BE000E178A37809020020194300E000BF01200A
:104BF000ECE7012927D00329E7D11C4B002BE4D097
:104C00000020911DFEF7B6FA0120DFE7012922D02E
:104C10000329DAD101252E00A378E4780239240291
:104C20001C431471264024321000714000F0B6FB82
:104C30000F4B002BC9D06208002031002A4000E051
:104C400000BF0120C2E7072321002800094AFFF71F
:104C500021FD0120BAE721002800FFF703FD012014
:104C6000B4E7C046081F00200000000075310010A6
:104C7000000000000E1F0020F8B557464E4645467E
:104C8000DE46E0B5494F8046FA780C001E008A42A5
:104C900064D19AB292239B00FD1810239B46BB441B
:104CA0002900584600F0A6FA414BD946002B18D0EF
:104CB0007B79D946FF2B14D0002E12D0AA19924628
:104CC00003E0013555450CD07B792A789A42F8D11A
:104CD000484600F067F90028F3D1797900E000BF79
:104CE000EFE7344B002B04D0484600F05BF9002876
:104CF00052D0484600F05EF93F2834D84A46103A70
:104D00009378A34207D001242000F0BCBB46B246F2
:104D1000A946A046F8BD284B002B02D0002000E099
:104D200000BF0020FFF70CFE0028ECD1234D280027
:104D300000F022F90028E6D1002EE4D0B306E2D13B
:104D4000243D4046A978FFF73FFC041EDBD000233A
:104D500000224046A978FFF75FFCD5E7BB788B427D
:104D6000D9D00024D0E74D46103D0020E978FFF768
:104D70002BFC002801D1AB78C3E7484600F01AF9B4
:104D80003F280CD98E22920040230020E9784A4423
:104D9000FFF742FCAB78B4E7FEF75EFBA9E7002023
:104DA000E978FFF725FCAB78ABE7C046081F002089
:104DB0000000000059340010000000002C1F0020EB
:104DC00010B50020FEF7D8FE10BDC04610B5FEF7A6
:104DD000C9FE10BD037870B5DB0704000E00DD0FBF
:104DE000002B17D103785B0701D5280070BD012186
:104DF0003000494205F09CFF2378DB07DD0F002BD4
:104E00000AD123785B0708D40422237801251343B1
:104E1000237002E00025E8E70025300005F048FF98
:104E2000E3E7C04670B50D000121040049422800A7
:104E300005F07EFF23785B07DE0F002B04DB2800E4
:104E400005F036FF300070BD2378DB0704D4042260
:104E5000237893432370F2E70026F0E710B54379F7
:104E600004791B0223435B055A0DC3789B079B0FF4
:104E7000022B05D0032B15D00020012B08D010BD2C
:104E800002291CD00020402393424041C0B2F6E7E3
:104E900002394B4259410D4B9C466144914240417D
:104EA000C0B2ECE702394B425941F023002049429D
:104EB0009B001940403191424041C0B2DFE7044BB2
:104EC000D3185A425341D8B2D9E7C046FF03000075
:104ED00000FEFFFF8A1870B5914207D27F264C78FA
:104EE000052C04D00C7809198A42F8D870BD34001A
:104EF0008D782C4064000419ED0963550C7809196C
:104F00008A42ECD8F2E7C046F0B5C64600B50400C8
:104F100006A805788020884617001E0000028242FD
:104F200027D8E068002803D00121494205F000FF9E
:104F30002069002803D00121494205F0F9FE4346CB
:104F4000236073045B0CED031D430023E068638161
:104F5000A780E5802381002801D005F0A9FE206903
:104F60000124002801D005F0A3FE200080BCB84633
:104F7000F0BD0024F9E7C04610B504894189828854
:104F8000A3B288B28C4207D31B1A9BB2101C9A4260
:104F900000D9181C80B210BD5100091A5B189BB2D1
:104FA000F4E7C046030000895B89C01A43425841B8
:104FB000C0B2704710B5048941898288A3B288B213
:104FC0008C4207D31B1A9BB200209A4201D9D31AF4
:104FD00098B210BD5100091A5B189BB2F4E7C046A5
:104FE00070B5040000690E00002803D00121494279
:104FF00005F09EFE25896089A288A9B283B2854208
:105000002CD3CD1AADB2002D2ED0AA4208D2914297
:1050100031D38B1A9BB263819A4203D89B1A9BB2FD
:105020009A42FBD9E28821685204520C5343300063
:10503000C918FDF735FE618901254B1C9BB2A2887A
:10504000994214D9002352009B1A9BB220696381B4
:10505000002801D005F02CFE280070BD5500ED1A87
:105060004D19ADB2002DD0D1002563899BB25200FD
:105070009342EBDBE8E789188BB26381CCE7C0464B
:10508000F0B546464F46D646C0B50600006989468B
:105090009046002803D00121494205F049FE31899C
:1050A0007289B5888BB294B2914257D31F1BBFB29D
:1050B000002F4DD0BD4205D2AB4254D25B199CB2F9
:1050C0002F0074814346B84540D89FB2A54203D80B
:1050D000641BA4B2A542FBD9F288281B5204530CCE
:1050E00019009846336861439C4680B26144874208
:1050F00026D94346584383B21A0048469A46FDF7DC
:10510000CFFD434648467D1B64195C4331685044DB
:10511000A2B2FDF7C5FD7189B588CB199BB26A00B3
:10512000994217D99B1A9BB230697381002801D02C
:1051300005F0BEFD3800E0BCBA46B146A846F0BD59
:10514000424648467A43FDF7ABFDE4E73B1CBCE72B
:1051500073899BB26A009342E6DBE3E76F003F1B73
:10516000DF19BFB2A4E75B1B9CB2A9E7F8B5040046
:10517000C0680E00002803D00121494205F0D8FD87
:10518000258920896189A288ADB283B28FB2884215
:1051900028D3DB1B9BB29A4209D8E779FF0906D1D5
:1051A000E068002801D005F083FD3800F8BD2B0031
:1051B000954203D39B1A9BB29342FBD2E2882168AB
:1051C0005204520C5343C8183100FDF769FDA28800
:1051D0006B1C9BB252009D4209D99B1A9BB20127BE
:1051E0002381DDE75100C91B5B189BB2D3E79342D3
:1051F000F5DBF2E7F0B54E464546DE465746E0B5EC
:1052000089460500140083B0002A6ED0C0680028CB
:1052100003D00121494205F08BFD2F89EA796B8982
:10522000BFB29BB2D20942D1AE889F4267D2720010
:10523000D31AFB189BB2002290469E4231D9F31A32
:105240001A1C9BB2A34200D9221C93B29846E8884C
:105250004346FB189BB29B463C00B74203D3A41BBA
:10526000A4B2B442FBD24004430C18009A462B6807
:1052700060439C46311B89B2604441454ED352463F
:10528000434649465A43FDF70BFDAB885B00BB45DF
:1052900001D39B4503DB5A46D31A9BB29B465B4620
:1052A0002B81E868002822D005F002FD1FE0AA88C3
:1052B0009046944226D29F4244D34146FA1A92B273
:1052C000490012198A4209DB42469A1892B2171B0A
:1052D000BFB29346BB423AD97F1ABFB2E3199BB221
:1052E00046469B46A046E888B6E7002398464046D7
:1052F00003B0F0BCBB46B246A946A046F0BDFB1ABF
:105300009BB298E7E888A21A4404640C54434246CE
:10531000A144002AC5D046461F0099E75346594389
:1053200089B20A0001914946FDF7BAFC43469A1B2F
:105330005346A2185A430199286892B24944FDF78E
:10534000AFFCA2E75100CA1ABA1892B2B9E7B94243
:10535000C2DD4646E888A0467EE7C04610B5040098
:10536000C068002803D00121494205F0E1FC206912
:10537000002803D00121494205F0DAFC0023E0684F
:1053800063812381002801D005F092FC2069002868
:1053900001D005F08DFC012010BDC04670B50400A1
:1053A000C0680D00002803D00121494205F0C0FC6F
:1053B0002069002803D00121494205F0B9FC7F2172
:1053C000E379ED011940E0682943E171002801D03B
:1053D00005F06EFC2069002801D005F069FC012071
:1053E00070BDC04603BDC04610B50400FBF7E4FD28
:1053F000A04710BDF0B5040087B00F200E001700C5
:10540000FBF758FB002105000F20FBF741FB0023B1
:1054100000220092019301230293D0230496059465
:10542000002600240121022003971B06002C14D023
:105430001A6D1042FCD05C6540BF1A6D114203D159
:1054400020BF1A6D1142FBD09A6DA2420AD00026ED
:105450006C46B200A458E9E79A6D1A6D1142FBD16F
:1054600040BFE5E70136052EF2D929000F20FBF7F2
:105470000FFB07B0F0BDC0460B4B0C4A10B5934272
:1054800001D201235B421900094A985004329B5013
:10549000084A094B0948CA50094B9A68044B9C4674
:1054A0006144FFF7A7FF10BD00080420000004209E
:1054B000F4070000E9530010FC070000E55300105A
:1054C00000ED00E010B50A22002101F0EDFF10BD53
:1054D00010B50A23002201F0C3FF10BD10B5034B25
:1054E00019687C3100F004F810BDC046401100205E
:1054F000F8B5CE46474680B50C00070002F0DEFC4A
:1055000021000500380002F0DDFC864A4369904620
:10551000040098449B072DD164214046FDF780F894
:105520003023002926D099467F4E02F061F902F01F
:1055300063F97E4BB1441B68002B00D179E06B68A6
:10554000434522D12B68002B00D19BE00ACF6A6A29
:105550009A4200DDBDE000D1B7E0EA6C9A4205DC7A
:1055600000D0B6E0AB6C8B4200D8B2E001232362DE
:105570002E6D13E0C82140464900FDF751F84B421B
:1055800059414B005B181B01CDE7404602F062F821
:105590000028D7D101235B422362AE6AE1213000AB
:1055A0000901FDF73DF80D003C212800FDF738F812
:1055B000236828005F1A27603C21FDF731F8E121BC
:1055C000636809011D1A65603000FDF729F8A368BA
:1055D000181AA0603B2F4EDD01353C3F6560276007
:1055E0003B2D41DD01303C3DA0606560172822DD88
:1055F000E3690133E361A3690133062B00DD002376
:105600001838A0604846A361E36822690133E3606B
:10561000910009588B4205DD5B1AE360531C0B2A8D
:105620004AD0236102F0E6F82000C0BCB946B0467B
:10563000F8BD2362B1E70028F4DAE369013BE361D6
:10564000A369013B3FD4A361E3681830013BE360E9
:10565000A060002BE6D12369013B44D423619B0069
:105660004A46D358E360DDE7002DBFDA01383C3508
:10567000A0606560BAE7002FB2DA013D3C37656093
:105680002760ADE76A6A0ACF9A4205DC00D06DE771
:105690002A6A8A4200D869E7EA6C0120AF6C9A4214
:1056A0001ADD20629A4200DD62E700D075E78F4282
:1056B00000D872E72E6D71E7002263692261013321
:1056C0006361E261AEE70623BDE72A6A8A4200D839
:1056D00043E70023236260E79A4201D00020E0E71D
:1056E0008F42DED8FAE70B23656923616B1E636185
:1056F0000F4B9C466544AB070AD164212800FCF798
:105700008FFF002904D06E21FF312C23E161A7E730
:10571000C82128004900FCF783FF4B4259416D31F5
:10572000FF31F2E76C07000018B10010F81E0020EE
:105730006B07000010B5034B0100186800F00EF86D
:1057400010BDC0464011002010B5034B0100186881
:1057500002F082FA10BDC04640110020F0B54E465E
:105760004546DE465746E0B50D000B35060083B0D2
:10577000162D22D8102900D9B2E000F093FD102593
:1057800018230220CC4FFB181A005C68083A944298
:1057900000D1B5E0032362689A431300E268A16870
:1057A000CA6091600122E318596830000A435A60C8
:1057B00000F07AFD2000083095E007239D4300D5D6
:1057C0008EE0A94200D98BE000F06CFDFC235B0069
:1057D0009D4200D2A1E1680A00D18BE0042800D9E3
:1057E00074E138239846A80980443930C100B24F8B
:1057F00079184C680839A1420ED003239C4604E076
:10580000002ACBDAE468A14206D06246636893437B
:105810005A1B0F2AF4DD40463A003C690832944294
:1058200000D178E003236168994389460B00491B46
:105830000F2900DD75E17A613A610029B2DA802230
:105840009200914500D310E15909DA0801238B40F9
:10585000D2007968D2190B4391687B60E260A16045
:105860009460CC60012182109140994259D80B423A
:1058700005D103229043490004300B42FBD003239F
:105880009846C3009946B944CC4682466346DC68D4
:10589000A44507D126E1002A00DB2FE1E468A445F6
:1058A00000D11FE14246636893435A1B0F2AF2DD81
:1058B00001208046611905436560A068E5680837E6
:1058C000C560A86040461043F960B9604860CF6089
:1058D00030008F60E25000F0E7FC2000083002E06A
:1058E0000C230020336003B0F0BCBB46B246A9468F
:1058F000A046F0BD80213F2340209846890076E7EE
:10590000DC680230A34200D044E73A003C69083228
:10591000944200D086E701217B6882109140994231
:10592000A5D90323BC6862689A439146954203D87F
:10593000531B0F2B00DD8AE023004B445F4A019389
:105940005F4B93469A4612681B68EB18013200D1F0
:1059500036E15C4A944663441B0B1B030093300002
:10596000009900F04DFE03008046013300D1F3E0C2
:10597000019B834200D9EDE0524600985268030033
:105980009446514663444B6001991A00414500D149
:105990004BE15B461B68013300D150E1434601995E
:1059A0005B1A9A1853465A600723424641461A40EA
:1059B0000192194200D10DE108239846881A424B02
:1059C0000099804441449B1A5B1A1B051B0D0091F2
:1059D000300019009B4600F013FE431C00D14AE141
:1059E0004346C01A03005B440093534652465B682B
:1059F00001215B44536042464046BA60009A0A4324
:105A00004260BC4200D11EE14A460F2A00D81CE188
:105A100007200C3A82436068014005201143616011
:105A2000A118486088600F2A00D92FE142464446F9
:105A300052685146C96A994201D25146CB625146D9
:105A4000096B994200D389E051460B6386E001223D
:105A5000290013431143651961603000BD606B601C
:105A600000F022FC200008303DE75A0A042A6BD9D6
:105A7000142A00D9BEE011005C325B31D200082349
:105A80005B429C46BA18944463469A68032398463E
:105A9000944500D197E0434651689943494502D95E
:105AA00092689445F7D1D3689C467B686146A260B2
:105AB000E1608C60D460D5E6781500207015002078
:105AC000A41E00200F10000008100000142852D956
:105AD000542800D996E06E239846280B80446F30F6
